:04000000B5EF02F066
:100008004582FACF1EF0FBCF1FF0E9CF20F0EACFF0
:1000180021F0E1CF22F0E2CF23F0D9CF24F0DACFDC
:1000280025F0F3CF26F0F4CF27F0F6CF28F0F7CF5E
:1000380029F0F8CF2AF0F5CF2BF09EA054D1000E6E
:10004800CF6E000ECE6E9E90392A080E3918D8A4AD
:100058004AD136503710D8B486D0010EF66E090052
:10006800F5CF07F00900F5CF08F00900F5CF09F042
:100078000A00F5CF0AF036C001F037C002F0090EC9
:10008800F66E0900F5CF03F00A00F5CF04F0E8ECAE
:1000980007F001C00BF002C00CF00D6A0E6A4EECBE
:1000A80007F007C014F008C015F009C016F00AC020
:1000B80017F0010EF66E0900F5CF07F00900F5CF2D
:1000C80008F00900F5CF09F00A00F5CF0AF0090E8B
:1000D800F66E0900F5CF18F00900F5CF19F036C013
:1000E80001F037C002F0090EF66E0900F5CF03F0F3
:1000F8000A00F5CF04F0E8EC07F018500126195073
:10010800022201C00BF002C00CF00D6A0E6A4EEC20
:1001180007F0075014241A6E085015201B6E09505A
:1001280016201C6E0A5017201D6ED8901D321C32E6
:100138001B321A321A1E1B1E1C1E1D1E1A2A000EE6
:100148001B221C221D22FF0E1A2400016E6FFF0EB7
:100158001B2000016F6F000E1C200001706F000E45
:100168001D200001716F000E376E000E366E000EF6
:10017800396E344A352A355004E10F0E345CD8A064
:1001880003D04306D8A0440644BEADD043C001F016
:1001980044C002F0000E046E3C0E036E0CEC07F037
:1001A80001503B6E43C009F044C00AF0000E0C6ECB
:1001B8003C0E0B6E8FEC07F009503C6E3BC001F013
:1001C800026A000E046E0A0E036E0CEC07F0015072
:1001D8003E6E3BC009F00A6A000E0C6E0A0E0B6EEA
:1001E8008FEC07F009503F6E3CC001F0026A000E28
:1001F800046E0A0E036E0CEC07F00150416E3CC011
:1002080009F00A6A000E0C6E0A0E0B6E8FEC07F0EE
:100218000950426E000E2D6E000E2C6E2DBE06D0BB
:100228002D5061E1050E2C5CD8B05DD0000E2F6E0C
:10023800000E2E6E2FBE06D02F5052E1080E2E5CF7
:10024800D8B04ED02EC001F02FC002F0000E046EC0
:10025800030E036EE8EC07F03E0E2C24D96E000E58
:100268002D20DA6EDF50146E1450180D8E0E156E98
:10027800020E166EF3501526F4501622015015245E
:10028800D96E02501620DA6E2CC017F02DC018F067
:10029800D89017361836D89017361836D89017369B
:1002A80018362E5017262F5018221B0E1724016EB1
:1002B800000E1820026E000E046E030E036EE8ECAA
:1002C80007F0960E0124E16E030E0220E26EDECFE7
:1002D800E6FFDECFE6FFDECFE6FF2E4A2F2AAAD7BB
:1002E8002C4A2D2A9BD7A1A21ED16FC0B3FF6EC086
:1002F800B2FFA192090EF66E0900F5CF14F00900BD
:10030800F5CF15F01450166E1550176E186A196A45
:100318001650305C1750315818503258195033580D
:10032800D8B0FBD035503BE10D0E345CD8B037D097
:1003380030C001F031C002F0000E046E030E036EEF
:10034800E8EC07F0800E0124D96E010E0220DA6E67
:10035800DF500F6E30C001F031C002F0000E046EA5
:10036800030E036EE8EC07F0010E0126000E0222D0
:10037800800E0124D96E010E0220DA6EDECF10F055
:10038800DDCF11F030C001F031C002F032C003F00F
:1003980033C004F03AEC05F05DEC06F0BED044BE84
:1003A80042D030C001F031C002F0000E046E030EDE
:1003B800036EE8EC07F0960E0124D96E030E0220B6
:1003C800DA6EDF500F6E30C001F031C002F0000E5F
:1003D800046E030E036EE8EC07F0010E0126000E12
:1003E8000222960E0124D96E030E0220DA6EDECFA9
:1003F80010F0DDCF11F0000E046E0A0E036E43C03C
:1004080001F044C002F00CEC07F001C009F002C092
:100418000AF0000E0C6E070E0B6E8FEC07F0092821
:100428005DEC06F07AD043C001F044C002F0FF0E44
:10043800046EF90E036E0CEC07F001A038D030C042
:1004480001F031C002F0000E046E030E036EE8ECFA
:1004580007F0720E0124D96E000E0220DA6EDF500A
:100468000F6E30C001F031C002F0000E046E030EB2
:10047800036EE8EC07F0010E0126000E0222720E50
:100488000124D96E000E0220DA6EDECF10F0DDCF27
:1004980011F034C001F035C002F0000E046E070EF2
:1004A800036EC7EC07F001285DEC06F036D030C0CB
:1004B80001F031C002F0000E046E030E036EE8EC8A
:1004C80007F0800E0124D96E010E0220DA6EDF508B
:1004D8000F6E30C001F031C002F0000E046E030E42
:1004E800036EE8EC07F0010E0126000E0222800ED2
:1004F8000124D96E010E0220DA6EDECF10F0DDCFB6
:1005080011F030C001F031C002F032C003F033C046
:1005180004F03AEC05F05DEC06F0010E3026000E12
:100528003122322233222BC0F5FF2AC0F8FF29C01E
:10053800F7FF28C0F6FF27C0F4FF26C0F3FF25C049
:10054800DAFF24C0D9FF23C0E2FF22C0E1FF21C0A7
:10055800EAFF20C0E9FF1FC0FBFF1EC0FAFF45925B
:060568001100C1EF06F0D6
:100600000018A10700DC0B00005A000000000000E9
:1006100000000000000000000000000000000000DA
:1006200000000000000000000000000000000000CA
:100630000800000800000F00E008000008000000AB
:1006400000000000000000000F00E00100000200B8
:10065000000200000100E0000000000000000000B7
:100660000000400200A00200A00200A00100C000A3
:1006700000200000000000000300E0020000020073
:10068000000200000100E000000000000000000087
:100690000000000F00E00000800100400200200088
:1006A00000000000000000000C000002000001003B
:1006B000E00200000C00000000000000000000004C
:1006C0000100C00200200200200200200100C00042
:1006D00000000000000000000300000000C0000057
:1006E000200000C003000000000000000000000027
:1006F0000000000000000F00A0000000000000004B
:1007000000000000000000000000000000000000E9
:1007100000000000000000000000000000000000D9
:100720000000000000000000000000000700E004DE
:1007300000200400200400200400200700E0000046
:10074000000000000400800400800400800F00E02E
:100750000400800400800400800000000400000207
:10076000000008000004000000000000000002007B
:10077000000C00200400200400200700C00400003A
:1007800004000000000004002002002001002000FE
:100790000020000040000080070000000000000072
:1007A0008001000002000001000000008000004005
:1007B00000002000000000000005002005002005CA
:1007C00000200500200700E00000000000000700F6
:1007D000000400000400200C00200400200400C0DD
:1007E0000700000000000400200400200400200492
:1007F00000200400200700E00000000000000000CE
:10080000000C00000300000000200000200000C0D9
:100810000F000000000000000000000000000000C9
:1008200000000000000000000700C00800A0090050
:10083000200A00200700C0000000000000000000A7
:100840000200200400200F00E00000200000200033
:1008500000000000000000000400600800600800C4
:10086000A00800A007002000000000000000000019
:100870000400400800200900200900200600C000F4
:1008800000000000000000000300C0040040080059
:10089000400F00E0000040000000000000000000E9
:1008A0000E00400A00200A00200A00200900C000B3
:1008B00000000000000000000700C00A00200A003D
:1008C000200A00200100C00000000000000000001D
:1008D0000C00000800000800600900800E00000005
:1008E00000000000000000000600C0090020090010
:1008F000200900200600C0000000000000000000E9
:100900000700000800A00800A00800A00700C00021
:1009100000000000000000000000000000000200D5
:100920004000000000000000000000000000000087
:10093000720ED36E000E0F01386F000E0F01396F6B
:10094000000E0F013A6F000E926E100E936E000EA5
:10095000946E000E806E000E816E000E826E330E5D
:10096000CD6E050EF66E0900F5CF65F00900F5CFE6
:1009700066F00900F5CF67F00900F5CF68F066C0B2
:1009800065F067C066F068C067F00001686B000141
:100990006551CF6E050EF66E0800F5CFCEFF9E9026
:1009A0009D80330EB16E6EC065F06FC066F070C092
:1009B00067F071C068F00001651F661F671F681F40
:1009C000652B000E662367236823FF0E0001652553
:1009D0000001696FFF0E0001662100016A6F000EC1
:1009E0000001672100016B6F000E0001682100010A
:1009F0006C6F6AC069F06BC06AF06CC06BF000018C
:100A00006C6B00016951B36E00016E51000800016A
:100A1000656F00016505B26EA192A082F28CF28E24
:100A2000000E0001606F000E0001626F000E616F2A
:100A3000000EDAEC05F01AD081A812D000016D5139
:100A40000001D8A40DD0364A372A010E00016D6F7F
:100A5000000E306E000E316E000E326E000E336EE0
:100A600081B8EAD700016D05D8A4E6D7000E0001D1
:100A70006D6FE2D704500310021004E1050E015C13
:100A8000D8A00AD004500310021006E10D0E015C3C
:100A9000D8B002D0010E120004500310021004E17D
:100AA0000D0E015CD8A00AD004500310021006E11C
:100AB0001B0E015CD8B002D0040E120004500310CB
:100AC000021004E11B0E015CD8A00AD004500310F0
:100AD000021006E1230E015CD8B002D0020E120013
:100AE00004500310021004E1240E015CD8A00AD0C7
:100AF00004500310021006E12B0E015CD8B002D0A6
:100B0000050E120004500310021004E12C0E015CCB
:100B1000D8A00AD004500310021006E1340E015C84
:100B2000D8B002D0030E120004500310021004E1EA
:100B3000340E015CD8A00AD004500310021006E164
:100B40003B0E015CD8B002D0060E12000450031018
:100B5000021004E13B0E015CD8A00AD0045003103F
:100B6000021006E1430E015CD8B002D0070E12005D
:100B700004500310021004E1440E015CD8A008D018
:100B800004500310021004E14B0E015CD8A094D76E
:100B900004500310021004E14C0E015CD8A008D0F0
:100BA00004500310021004E1540E015CD8A0A8D731
:100BB000000E12000001646F64C063F0010E0001BA
:100BC00063170001633B63478A5000016319DF0B21
:100BD00063198A6E64C063F00001D8906333010E1C
:100BE000000163170001633B634763478A500001BC
:100BF0006319BF0B63198A6E64C063F00001D8905B
:100C000063330001D8906333010E000163170001C4
:100C1000633363338A50000163197F0B63198A6E53
:100C200060C063F0010E000163178A500001631970
:100C3000FE0B63198A6E60C063F00001D8906333C5
:100C4000010E00016317000163478A500001631918
:100C5000FD0B63198A6E60C063F00001D8906333A6
:100C60000001D8906333010E000163170001634750
:100C700063478A5000016319FB0B63198A6E60C0D9
:100C800063F00001D89063330001D8906333000112
:100C9000D8906333010E0001631700016347634777
:100CA00063478A5000016319F70B63198A6E0001CC
:100CB00062518B6E61C089FF1200136E13C012F077
:100CC000010E1216123A12468A501218DF0B121831
:100CD0008A6E13C012F0D8901232010E1216123A18
:100CE000124612468A501218BF0B12188A6E13C091
:100CF00012F0D8901232D8901232010E121612321F
:100D000012328A5012187F0B12188A6E0FC012F01E
:100D1000010E12168A501218FE0B12188A6E0FC09E
:100D200012F0D8901232010E121612468A50121882
:100D3000FD0B12188A6E0FC012F0D8901232D890A4
:100D40001232010E1216124612468A501218FB0B6E
:100D500012188A6E0FC012F0D8901232D890123248
:100D6000D8901232010E12161246124612468A50BE
:100D70001218F70B12188A6E11508B6E10C089FF73
:100D8000120003EE96F011EE0EF0EE6AE550E1501F
:100D9000FCE1E250FAE100EE30F00E0EEE6AE806F9
:100DA000FDE10C0EF66E060EF76E000EF86E00EE0C
:100DB00072F013EE24F00900F5CFEEFFE550E1509C
:100DC000FAE1E250F8E1FD0EF66E0F0EF76E000E3E
:100DD000F86E00EE6EF010EE04F00900F5CFEEFFB5
:100DE000E550E150FAE1F60EF66E0F0EF76E000ECA
:100DF000F86E00EE3EF010EE07F00900F5CFEEFFC2
:100E0000E550E150FAE145904592000EF86E060E6D
:100E1000F76E000198EF04F0000E066E04AE06D0E7
:100E2000036C041ED8B0042A010E066E02AE06D072
:100E3000016C021ED8B0022A010E061A000E086EBE
:100E4000000E076E03500410D8B41CD0010E056EBE
:100E500004D0D89003360436052A04AEFAD7D890C9
:100E6000073608360350015C04500258D8A005D05C
:100E70000350015E0450025A0780D89004320332B6
:100E8000052EEDD70650D8B404D0076C081ED8B094
:100E9000082A07C001F008C002F01200000E0F6E11
:100EA000000E106E000E116E000E126E0B500C1024
:100EB0000D100E10D8B42AD0010E136E06D0D890A3
:100EC0000B360C360D360E36132A0EAEF8D7D890E8
:100ED0000F361036113612360B50075C0C5008587E
:100EE0000D5009580E500A58D8A009D00B50075E73
:100EF0000C50085A0D50095A0E500A5A0F80D890BB
:100F00000E320D320C320B32132EE1D70FC007F028
:100F100010C008F011C009F012C00AF01200000E53
:100F20000E6E0AAE06D0096C0A1ED8B00A2A010E4F
:100F30000E6E0CAE04D00B6C0C1ED8B00C2A0B50ED
:100F40000C10D8B418D0010E0D6E04D0D8900B360A
:100F50000C360D2A0CAEFAD70B50095C0C500A580F
:100F6000D8A004D00B50095E0C500A5AD8900C320D
:100F70000B320D2EF1D70E50D8B404D0096C0A1ED6
:100F8000D8B00A2A09C009F00AC00AF012000350BA
:100F90000410D8B418D0010E056E04D0D8900336D2
:100FA0000436052A04AEFAD70350015C04500258F7
:100FB000D8A004D00350015E0450025AD8900432E5
:100FC0000332052EF1D701C001F002C002F0120079
:100FD00001500302F3CF05F0F4CF06F001500402F4
:100FE000F350062602500302F350062605C001F016
:100FF00006C002F0120000000A00007800E80300BA
:021000000000EE
:020000040020DA
:08000000FFFFFFFFFFFFFFFF00
:020000040030CA
:0E000000FF08043CFF3781FF0FC00FE00F40E8
:00000001FF
